{
  "address": "0xb735826538D931d098ECe8ea388f5522ca1f1cd6",
  "abi": [
    {
      "inputs": [],
      "stateMutability": "nonpayable",
      "type": "constructor"
    },
    {
      "anonymous": false,
      "inputs": [
        {
          "indexed": true,
          "internalType": "address",
          "name": "owner",
          "type": "address"
        },
        {
          "indexed": true,
          "internalType": "address",
          "name": "approved",
          "type": "address"
        },
        {
          "indexed": true,
          "internalType": "uint256",
          "name": "tokenId",
          "type": "uint256"
        }
      ],
      "name": "Approval",
      "type": "event"
    },
    {
      "anonymous": false,
      "inputs": [
        {
          "indexed": true,
          "internalType": "address",
          "name": "owner",
          "type": "address"
        },
        {
          "indexed": true,
          "internalType": "address",
          "name": "operator",
          "type": "address"
        },
        {
          "indexed": false,
          "internalType": "bool",
          "name": "approved",
          "type": "bool"
        }
      ],
      "name": "ApprovalForAll",
      "type": "event"
    },
    {
      "anonymous": false,
      "inputs": [
        {
          "indexed": false,
          "internalType": "uint256",
          "name": "_fromTokenId",
          "type": "uint256"
        },
        {
          "indexed": false,
          "internalType": "uint256",
          "name": "_toTokenId",
          "type": "uint256"
        }
      ],
      "name": "BatchMetadataUpdate",
      "type": "event"
    },
    {
      "anonymous": false,
      "inputs": [
        {
          "indexed": false,
          "internalType": "uint256",
          "name": "_tokenId",
          "type": "uint256"
        }
      ],
      "name": "MetadataUpdate",
      "type": "event"
    },
    {
      "anonymous": false,
      "inputs": [
        {
          "indexed": true,
          "internalType": "address",
          "name": "owner",
          "type": "address"
        },
        {
          "indexed": false,
          "internalType": "uint256",
          "name": "amount",
          "type": "uint256"
        }
      ],
      "name": "OwnerWithdraw",
      "type": "event"
    },
    {
      "anonymous": false,
      "inputs": [
        {
          "indexed": true,
          "internalType": "address",
          "name": "previousOwner",
          "type": "address"
        },
        {
          "indexed": true,
          "internalType": "address",
          "name": "newOwner",
          "type": "address"
        }
      ],
      "name": "OwnershipTransferred",
      "type": "event"
    },
    {
      "anonymous": false,
      "inputs": [
        {
          "indexed": false,
          "internalType": "address",
          "name": "patron",
          "type": "address"
        },
        {
          "indexed": false,
          "internalType": "address",
          "name": "artist",
          "type": "address"
        },
        {
          "indexed": false,
          "internalType": "uint256",
          "name": "value",
          "type": "uint256"
        },
        {
          "indexed": true,
          "internalType": "uint256",
          "name": "songId",
          "type": "uint256"
        }
      ],
      "name": "PatronizeMusician",
      "type": "event"
    },
    {
      "anonymous": false,
      "inputs": [
        {
          "indexed": false,
          "internalType": "address",
          "name": "patron",
          "type": "address"
        },
        {
          "indexed": false,
          "internalType": "uint256",
          "name": "value",
          "type": "uint256"
        }
      ],
      "name": "PatronizeProject",
      "type": "event"
    },
    {
      "anonymous": false,
      "inputs": [
        {
          "indexed": true,
          "internalType": "uint256",
          "name": "songId",
          "type": "uint256"
        },
        {
          "indexed": false,
          "internalType": "string",
          "name": "artist",
          "type": "string"
        },
        {
          "indexed": false,
          "internalType": "string",
          "name": "genre",
          "type": "string"
        },
        {
          "indexed": false,
          "internalType": "string",
          "name": "title",
          "type": "string"
        }
      ],
      "name": "SongUploaded",
      "type": "event"
    },
    {
      "anonymous": false,
      "inputs": [
        {
          "indexed": true,
          "internalType": "address",
          "name": "from",
          "type": "address"
        },
        {
          "indexed": true,
          "internalType": "address",
          "name": "to",
          "type": "address"
        },
        {
          "indexed": true,
          "internalType": "uint256",
          "name": "tokenId",
          "type": "uint256"
        }
      ],
      "name": "Transfer",
      "type": "event"
    },
    {
      "inputs": [
        {
          "internalType": "address",
          "name": "_user",
          "type": "address"
        }
      ],
      "name": "accountExists",
      "outputs": [
        {
          "internalType": "bool",
          "name": "",
          "type": "bool"
        }
      ],
      "stateMutability": "view",
      "type": "function"
    },
    {
      "inputs": [
        {
          "internalType": "address",
          "name": "to",
          "type": "address"
        },
        {
          "internalType": "uint256",
          "name": "tokenId",
          "type": "uint256"
        }
      ],
      "name": "approve",
      "outputs": [],
      "stateMutability": "nonpayable",
      "type": "function"
    },
    {
      "inputs": [
        {
          "internalType": "address",
          "name": "",
          "type": "address"
        }
      ],
      "name": "artistNames",
      "outputs": [
        {
          "internalType": "string",
          "name": "",
          "type": "string"
        }
      ],
      "stateMutability": "view",
      "type": "function"
    },
    {
      "inputs": [
        {
          "internalType": "address",
          "name": "",
          "type": "address"
        },
        {
          "internalType": "uint256",
          "name": "",
          "type": "uint256"
        }
      ],
      "name": "artistSongs",
      "outputs": [
        {
          "internalType": "uint256",
          "name": "",
          "type": "uint256"
        }
      ],
      "stateMutability": "view",
      "type": "function"
    },
    {
      "inputs": [
        {
          "internalType": "address",
          "name": "owner",
          "type": "address"
        }
      ],
      "name": "balanceOf",
      "outputs": [
        {
          "internalType": "uint256",
          "name": "",
          "type": "uint256"
        }
      ],
      "stateMutability": "view",
      "type": "function"
    },
    {
      "inputs": [
        {
          "internalType": "address payable",
          "name": "_artist",
          "type": "address"
        },
        {
          "internalType": "uint256",
          "name": "_songId",
          "type": "uint256"
        }
      ],
      "name": "contribute",
      "outputs": [],
      "stateMutability": "payable",
      "type": "function"
    },
    {
      "inputs": [
        {
          "internalType": "uint256",
          "name": "tokenId",
          "type": "uint256"
        }
      ],
      "name": "getApproved",
      "outputs": [
        {
          "internalType": "address",
          "name": "",
          "type": "address"
        }
      ],
      "stateMutability": "view",
      "type": "function"
    },
    {
      "inputs": [
        {
          "internalType": "address",
          "name": "_artist",
          "type": "address"
        }
      ],
      "name": "getSongs",
      "outputs": [
        {
          "internalType": "uint256[]",
          "name": "",
          "type": "uint256[]"
        }
      ],
      "stateMutability": "view",
      "type": "function"
    },
    {
      "inputs": [
        {
          "internalType": "address",
          "name": "owner",
          "type": "address"
        },
        {
          "internalType": "address",
          "name": "operator",
          "type": "address"
        }
      ],
      "name": "isApprovedForAll",
      "outputs": [
        {
          "internalType": "bool",
          "name": "",
          "type": "bool"
        }
      ],
      "stateMutability": "view",
      "type": "function"
    },
    {
      "inputs": [
        {
          "internalType": "address",
          "name": "to",
          "type": "address"
        },
        {
          "internalType": "string",
          "name": "uri",
          "type": "string"
        },
        {
          "internalType": "string",
          "name": "genre",
          "type": "string"
        },
        {
          "internalType": "string",
          "name": "title",
          "type": "string"
        }
      ],
      "name": "mintItem",
      "outputs": [
        {
          "internalType": "uint256",
          "name": "",
          "type": "uint256"
        }
      ],
      "stateMutability": "payable",
      "type": "function"
    },
    {
      "inputs": [],
      "name": "name",
      "outputs": [
        {
          "internalType": "string",
          "name": "",
          "type": "string"
        }
      ],
      "stateMutability": "view",
      "type": "function"
    },
    {
      "inputs": [],
      "name": "nextTokenId",
      "outputs": [
        {
          "internalType": "uint256",
          "name": "",
          "type": "uint256"
        }
      ],
      "stateMutability": "view",
      "type": "function"
    },
    {
      "inputs": [],
      "name": "owner",
      "outputs": [
        {
          "internalType": "address",
          "name": "",
          "type": "address"
        }
      ],
      "stateMutability": "view",
      "type": "function"
    },
    {
      "inputs": [
        {
          "internalType": "uint256",
          "name": "tokenId",
          "type": "uint256"
        }
      ],
      "name": "ownerOf",
      "outputs": [
        {
          "internalType": "address",
          "name": "",
          "type": "address"
        }
      ],
      "stateMutability": "view",
      "type": "function"
    },
    {
      "inputs": [
        {
          "internalType": "string",
          "name": "_artistName",
          "type": "string"
        }
      ],
      "name": "registerAccount",
      "outputs": [],
      "stateMutability": "nonpayable",
      "type": "function"
    },
    {
      "inputs": [],
      "name": "renounceOwnership",
      "outputs": [],
      "stateMutability": "nonpayable",
      "type": "function"
    },
    {
      "inputs": [
        {
          "internalType": "address",
          "name": "from",
          "type": "address"
        },
        {
          "internalType": "address",
          "name": "to",
          "type": "address"
        },
        {
          "internalType": "uint256",
          "name": "tokenId",
          "type": "uint256"
        }
      ],
      "name": "safeTransferFrom",
      "outputs": [],
      "stateMutability": "nonpayable",
      "type": "function"
    },
    {
      "inputs": [
        {
          "internalType": "address",
          "name": "from",
          "type": "address"
        },
        {
          "internalType": "address",
          "name": "to",
          "type": "address"
        },
        {
          "internalType": "uint256",
          "name": "tokenId",
          "type": "uint256"
        },
        {
          "internalType": "bytes",
          "name": "data",
          "type": "bytes"
        }
      ],
      "name": "safeTransferFrom",
      "outputs": [],
      "stateMutability": "nonpayable",
      "type": "function"
    },
    {
      "inputs": [
        {
          "internalType": "address",
          "name": "operator",
          "type": "address"
        },
        {
          "internalType": "bool",
          "name": "approved",
          "type": "bool"
        }
      ],
      "name": "setApprovalForAll",
      "outputs": [],
      "stateMutability": "nonpayable",
      "type": "function"
    },
    {
      "inputs": [
        {
          "internalType": "bytes4",
          "name": "interfaceId",
          "type": "bytes4"
        }
      ],
      "name": "supportsInterface",
      "outputs": [
        {
          "internalType": "bool",
          "name": "",
          "type": "bool"
        }
      ],
      "stateMutability": "view",
      "type": "function"
    },
    {
      "inputs": [],
      "name": "symbol",
      "outputs": [
        {
          "internalType": "string",
          "name": "",
          "type": "string"
        }
      ],
      "stateMutability": "view",
      "type": "function"
    },
    {
      "inputs": [
        {
          "internalType": "uint256",
          "name": "tokenId",
          "type": "uint256"
        }
      ],
      "name": "tokenURI",
      "outputs": [
        {
          "internalType": "string",
          "name": "",
          "type": "string"
        }
      ],
      "stateMutability": "view",
      "type": "function"
    },
    {
      "inputs": [
        {
          "internalType": "address",
          "name": "from",
          "type": "address"
        },
        {
          "internalType": "address",
          "name": "to",
          "type": "address"
        },
        {
          "internalType": "uint256",
          "name": "tokenId",
          "type": "uint256"
        }
      ],
      "name": "transferFrom",
      "outputs": [],
      "stateMutability": "nonpayable",
      "type": "function"
    },
    {
      "inputs": [
        {
          "internalType": "address",
          "name": "newOwner",
          "type": "address"
        }
      ],
      "name": "transferOwnership",
      "outputs": [],
      "stateMutability": "nonpayable",
      "type": "function"
    },
    {
      "inputs": [],
      "name": "withdraw",
      "outputs": [],
      "stateMutability": "nonpayable",
      "type": "function"
    },
    {
      "stateMutability": "payable",
      "type": "receive"
    }
  ],
  "transactionHash": "0xa75494618ceb731919bd4f88df0de237a99fdb4990c5e7428d2ea547e8ddf8e7",
  "args": [],
  "numDeployments": 3,
  "solcInputHash": "ed1e686b9ace3c8a2189a9a293916852",
  "bytecode": "0x60806040526000600a553480156200001657600080fd5b506040518060400160405280600e81526020016d14dbdd5b990814d8d859999bdb1960921b81525060405180604001604052806004815260200163534f4e4760e01b81525081600090816200006c919062000199565b5060016200007b828262000199565b50505062000098620000926200009e60201b60201c565b620000a2565b62000265565b3390565b600780546001600160a01b038381166001600160a01b0319831681179093556040519116919082907f8be0079c531659141344cd1fd0a4f28419497f9722a3daafe3b4186f6b6457e090600090a35050565b634e487b7160e01b600052604160045260246000fd5b600181811c908216806200011f57607f821691505b6020821081036200014057634e487b7160e01b600052602260045260246000fd5b50919050565b601f8211156200019457600081815260208120601f850160051c810160208610156200016f5750805b601f850160051c820191505b8181101562000190578281556001016200017b565b5050505b505050565b81516001600160401b03811115620001b557620001b5620000f4565b620001cd81620001c684546200010a565b8462000146565b602080601f831160018114620002055760008415620001ec5750858301515b600019600386901b1c1916600185901b17855562000190565b600085815260208120601f198616915b82811015620002365788860151825594840194600190910190840162000215565b5085821015620002555787850151600019600388901b60f8161c191681555b5050505050600190811b01905550565b61229480620002756000396000f3fe60806040526004361061016a5760003560e01c8063715018a6116100d1578063a09f0aed1161008a578063bff6de2011610064578063bff6de2014610453578063c87b56dd14610473578063e985e9c514610493578063f2fde38b146104dc57600080fd5b8063a09f0aed146103f3578063a22cb46514610413578063b88d4fde1461043357600080fd5b8063715018a61461036257806375794a3c1461037757806375cd51ed1461038d5780638418cd99146103ad5780638da5cb5b146103c057806395d89b41146103de57600080fd5b80633516d4eb116101235780633516d4eb1461029f5780633ccfd60b146102cc57806342842e0e146102e15780636352211e14610301578063663459661461032157806370a082311461034257600080fd5b806301ffc9a7146101ae57806306fdde03146101e3578063081812fc14610205578063095ea7b31461023d57806323b872dd1461025f578063343bf1571461027f57600080fd5b366101a957604080513381523460208201527fe0b340fe02e59214fe2492eae8964ace044b9733674e2b6e928db5f8cff52c6b910160405180910390a1005b600080fd5b3480156101ba57600080fd5b506101ce6101c9366004611a02565b6104fc565b60405190151581526020015b60405180910390f35b3480156101ef57600080fd5b506101f861050d565b6040516101da9190611a6f565b34801561021157600080fd5b50610225610220366004611a82565b61059f565b6040516001600160a01b0390911681526020016101da565b34801561024957600080fd5b5061025d610258366004611ab0565b6105c6565b005b34801561026b57600080fd5b5061025d61027a366004611adc565b6106e0565b34801561028b57600080fd5b506101f861029a366004611b1d565b610711565b3480156102ab57600080fd5b506102bf6102ba366004611b1d565b6107ab565b6040516101da9190611b3a565b3480156102d857600080fd5b5061025d610817565b3480156102ed57600080fd5b5061025d6102fc366004611adc565b610968565b34801561030d57600080fd5b5061022561031c366004611a82565b610983565b61033461032f366004611c2a565b6109e3565b6040519081526020016101da565b34801561034e57600080fd5b5061033461035d366004611b1d565b610a8e565b34801561036e57600080fd5b5061025d610b14565b34801561038357600080fd5b50610334600a5481565b34801561039957600080fd5b506101ce6103a8366004611b1d565b610b28565b61025d6103bb366004611ab0565b610b66565b3480156103cc57600080fd5b506007546001600160a01b0316610225565b3480156103ea57600080fd5b506101f8610cab565b3480156103ff57600080fd5b5061033461040e366004611ab0565b610cba565b34801561041f57600080fd5b5061025d61042e366004611cc5565b610ceb565b34801561043f57600080fd5b5061025d61044e366004611d03565b610cfa565b34801561045f57600080fd5b5061025d61046e366004611d77565b610d32565b34801561047f57600080fd5b506101f861048e366004611a82565b610db5565b34801561049f57600080fd5b506101ce6104ae366004611de9565b6001600160a01b03918216600090815260056020908152604080832093909416825291909152205460ff1690565b3480156104e857600080fd5b5061025d6104f7366004611b1d565b610dc0565b600061050782610e39565b92915050565b60606000805461051c90611e17565b80601f016020809104026020016040519081016040528092919081815260200182805461054890611e17565b80156105955780601f1061056a57610100808354040283529160200191610595565b820191906000526020600020905b81548152906001019060200180831161057857829003601f168201915b5050505050905090565b60006105aa82610e5e565b506000908152600460205260409020546001600160a01b031690565b60006105d182610983565b9050806001600160a01b0316836001600160a01b0316036106435760405162461bcd60e51b815260206004820152602160248201527f4552433732313a20617070726f76616c20746f2063757272656e74206f776e656044820152603960f91b60648201526084015b60405180910390fd5b336001600160a01b038216148061065f575061065f81336104ae565b6106d15760405162461bcd60e51b815260206004820152603d60248201527f4552433732313a20617070726f76652063616c6c6572206973206e6f7420746f60448201527f6b656e206f776e6572206f7220617070726f76656420666f7220616c6c000000606482015260840161063a565b6106db8383610ebd565b505050565b6106ea3382610f2b565b6107065760405162461bcd60e51b815260040161063a90611e51565b6106db838383610fa9565b6008602052600090815260409020805461072a90611e17565b80601f016020809104026020016040519081016040528092919081815260200182805461075690611e17565b80156107a35780601f10610778576101008083540402835291602001916107a3565b820191906000526020600020905b81548152906001019060200180831161078657829003601f168201915b505050505081565b6001600160a01b03811660009081526009602090815260409182902080548351818402810184019094528084526060939283018282801561080b57602002820191906000526020600020905b8154815260200190600101908083116107f7575b50505050509050919050565b61081f61111a565b478061086d5760405162461bcd60e51b815260206004820152601e60248201527f4e6f2066756e647320617661696c61626c6520746f2077697468647261770000604482015260640161063a565b60006108816007546001600160a01b031690565b6001600160a01b03164760405160006040518083038185875af1925050503d80600081146108cb576040519150601f19603f3d011682016040523d82523d6000602084013e6108d0565b606091505b50509050806109165760405162461bcd60e51b81526020600482015260126024820152714661696c656420746f20776974686472617760701b604482015260640161063a565b6007546001600160a01b03166001600160a01b03167f13c461eb29f5d65800bbef5a5b05a06ea13b8b2ef4b889ee170f149bc1c8f8bd8360405161095c91815260200190565b60405180910390a25050565b6106db83838360405180602001604052806000815250610cfa565b6000818152600260205260408120546001600160a01b0316806105075760405162461bcd60e51b8152602060048201526018602482015277115490cdcc8c4e881a5b9d985b1a59081d1bdad95b88125160421b604482015260640161063a565b600a8054600091826109f483611e9e565b9091555050600a54610a068682611174565b610a10818661118e565b6001600160a01b038616600081815260096020908152604080832080546001810182559084528284200185905592825260089052819020905182917fc7892feed201049e739616af9421c40aa87a5182b77e18119977c9837e80c18991610a7b919088908890611ec5565b60405180910390a290505b949350505050565b60006001600160a01b038216610af85760405162461bcd60e51b815260206004820152602960248201527f4552433732313a2061646472657373207a65726f206973206e6f7420612076616044820152683634b21037bbb732b960b91b606482015260840161063a565b506001600160a01b031660009081526003602052604090205490565b610b1c61111a565b610b266000611259565b565b6001600160a01b03811660009081526008602052604081208054829190610b4e90611e17565b90501115610b5e57506001919050565b506000919050565b60003411610bc25760405162461bcd60e51b815260206004820152602360248201527f436f6e747269627574696f6e206d75737420626520677265617465722074686160448201526206e20360ec1b606482015260840161063a565b6000826001600160a01b03163460405160006040518083038185875af1925050503d8060008114610c0f576040519150601f19603f3d011682016040523d82523d6000602084013e610c14565b606091505b5050905080610c5c5760405162461bcd60e51b81526020600482015260146024820152732330b4b632b2103a379039b2b7321022ba3432b960611b604482015260640161063a565b604080513381526001600160a01b03851660208201523481830152905183917fa3fbd7a67b0fcfcaa19624761b962a39e6d55c3c463476abd1ba72eddd4930cd919081900360600190a2505050565b60606001805461051c90611e17565b60096020528160005260406000208181548110610cd657600080fd5b90600052602060002001600091509150505481565b610cf63383836112ab565b5050565b610d043383610f2b565b610d205760405162461bcd60e51b815260040161063a90611e51565b610d2c84848484611379565b50505050565b3360009081526008602052604090208054610d4c90611e17565b159050610d9b5760405162461bcd60e51b815260206004820152601e60248201527f417274697374206e616d6520616c726561647920726567697374657265640000604482015260640161063a565b3360009081526008602052604090206106db828483611fc7565b6060610507826113ac565b610dc861111a565b6001600160a01b038116610e2d5760405162461bcd60e51b815260206004820152602660248201527f4f776e61626c653a206e6577206f776e657220697320746865207a65726f206160448201526564647265737360d01b606482015260840161063a565b610e3681611259565b50565b60006001600160e01b03198216632483248360e11b14806105075750610507826114d1565b6000818152600260205260409020546001600160a01b0316610e365760405162461bcd60e51b8152602060048201526018602482015277115490cdcc8c4e881a5b9d985b1a59081d1bdad95b88125160421b604482015260640161063a565b600081815260046020526040902080546001600160a01b0319166001600160a01b0384169081179091558190610ef282610983565b6001600160a01b03167f8c5be1e5ebec7d5bd14f71427d1e84f3dd0314c0f7b2291e5b200ac8c7c3b92560405160405180910390a45050565b600080610f3783610983565b9050806001600160a01b0316846001600160a01b03161480610f7e57506001600160a01b0380821660009081526005602090815260408083209388168352929052205460ff165b80610a865750836001600160a01b0316610f978461059f565b6001600160a01b031614949350505050565b826001600160a01b0316610fbc82610983565b6001600160a01b031614610fe25760405162461bcd60e51b815260040161063a90612088565b6001600160a01b0382166110445760405162461bcd60e51b8152602060048201526024808201527f4552433732313a207472616e7366657220746f20746865207a65726f206164646044820152637265737360e01b606482015260840161063a565b6110518383836001611521565b826001600160a01b031661106482610983565b6001600160a01b03161461108a5760405162461bcd60e51b815260040161063a90612088565b600081815260046020908152604080832080546001600160a01b03199081169091556001600160a01b0387811680865260038552838620805460001901905590871680865283862080546001019055868652600290945282852080549092168417909155905184937fddf252ad1be2c89b69c2b068fc378daa952ba7f163c4a11628f55a4df523b3ef91a4505050565b6007546001600160a01b03163314610b265760405162461bcd60e51b815260206004820181905260248201527f4f776e61626c653a2063616c6c6572206973206e6f7420746865206f776e6572604482015260640161063a565b610cf6828260405180602001604052806000815250611526565b6000828152600260205260409020546001600160a01b03166112095760405162461bcd60e51b815260206004820152602e60248201527f45524337323155524953746f726167653a2055524920736574206f66206e6f6e60448201526d32bc34b9ba32b73a103a37b5b2b760911b606482015260840161063a565b600082815260066020526040902061122182826120cd565b506040518281527ff8e1a15aba9398e019f0b49df1a4fde98ee17ae345cb5f6b5e2c27f5033e8ce79060200160405180910390a15050565b600780546001600160a01b038381166001600160a01b0319831681179093556040519116919082907f8be0079c531659141344cd1fd0a4f28419497f9722a3daafe3b4186f6b6457e090600090a35050565b816001600160a01b0316836001600160a01b03160361130c5760405162461bcd60e51b815260206004820152601960248201527f4552433732313a20617070726f766520746f2063616c6c657200000000000000604482015260640161063a565b6001600160a01b03838116600081815260056020908152604080832094871680845294825291829020805460ff191686151590811790915591519182527f17307eab39ab6107e8899845ad3d59bd9653f200f220920489ca2b5937696c31910160405180910390a3505050565b611384848484610fa9565b61139084848484611559565b610d2c5760405162461bcd60e51b815260040161063a9061218d565b60606113b782610e5e565b600082815260066020526040812080546113d090611e17565b80601f01602080910402602001604051908101604052809291908181526020018280546113fc90611e17565b80156114495780601f1061141e57610100808354040283529160200191611449565b820191906000526020600020905b81548152906001019060200180831161142c57829003601f168201915b50505050509050600061148460408051808201909152601581527468747470733a2f2f697066732e696f2f697066732f60581b602082015290565b90508051600003611496575092915050565b8151156114c85780826040516020016114b09291906121df565b60405160208183030381529060405292505050919050565b610a8684611657565b60006001600160e01b031982166380ac58cd60e01b148061150257506001600160e01b03198216635b5e139f60e01b145b8061050757506301ffc9a760e01b6001600160e01b0319831614610507565b610d2c565b61153083836116e8565b61153d6000848484611559565b6106db5760405162461bcd60e51b815260040161063a9061218d565b60006001600160a01b0384163b1561164f57604051630a85bd0160e11b81526001600160a01b0385169063150b7a029061159d90339089908890889060040161220e565b6020604051808303816000875af19250505080156115d8575060408051601f3d908101601f191682019092526115d591810190612241565b60015b611635573d808015611606576040519150601f19603f3d011682016040523d82523d6000602084013e61160b565b606091505b50805160000361162d5760405162461bcd60e51b815260040161063a9061218d565b805181602001fd5b6001600160e01b031916630a85bd0160e11b149050610a86565b506001610a86565b606061166282610e5e565b600061169660408051808201909152601581527468747470733a2f2f697066732e696f2f697066732f60581b602082015290565b905060008151116116b657604051806020016040528060008152506116e1565b806116c084611881565b6040516020016116d19291906121df565b6040516020818303038152906040525b9392505050565b6001600160a01b03821661173e5760405162461bcd60e51b815260206004820181905260248201527f4552433732313a206d696e7420746f20746865207a65726f2061646472657373604482015260640161063a565b6000818152600260205260409020546001600160a01b0316156117a35760405162461bcd60e51b815260206004820152601c60248201527f4552433732313a20746f6b656e20616c7265616479206d696e74656400000000604482015260640161063a565b6117b1600083836001611521565b6000818152600260205260409020546001600160a01b0316156118165760405162461bcd60e51b815260206004820152601c60248201527f4552433732313a20746f6b656e20616c7265616479206d696e74656400000000604482015260640161063a565b6001600160a01b038216600081815260036020908152604080832080546001019055848352600290915280822080546001600160a01b0319168417905551839291907fddf252ad1be2c89b69c2b068fc378daa952ba7f163c4a11628f55a4df523b3ef908290a45050565b6060600061188e83611914565b600101905060008167ffffffffffffffff8111156118ae576118ae611b7e565b6040519080825280601f01601f1916602001820160405280156118d8576020820181803683370190505b5090508181016020015b600019016f181899199a1a9b1b9c1cb0b131b232b360811b600a86061a8153600a85049450846118e257509392505050565b60008072184f03e93ff9f4daa797ed6e38ed64bf6a1f0160401b83106119535772184f03e93ff9f4daa797ed6e38ed64bf6a1f0160401b830492506040015b6d04ee2d6d415b85acef8100000000831061197f576d04ee2d6d415b85acef8100000000830492506020015b662386f26fc10000831061199d57662386f26fc10000830492506010015b6305f5e10083106119b5576305f5e100830492506008015b61271083106119c957612710830492506004015b606483106119db576064830492506002015b600a83106105075760010192915050565b6001600160e01b031981168114610e3657600080fd5b600060208284031215611a1457600080fd5b81356116e1816119ec565b60005b83811015611a3a578181015183820152602001611a22565b50506000910152565b60008151808452611a5b816020860160208601611a1f565b601f01601f19169290920160200192915050565b6020815260006116e16020830184611a43565b600060208284031215611a9457600080fd5b5035919050565b6001600160a01b0381168114610e3657600080fd5b60008060408385031215611ac357600080fd5b8235611ace81611a9b565b946020939093013593505050565b600080600060608486031215611af157600080fd5b8335611afc81611a9b565b92506020840135611b0c81611a9b565b929592945050506040919091013590565b600060208284031215611b2f57600080fd5b81356116e181611a9b565b6020808252825182820181905260009190848201906040850190845b81811015611b7257835183529284019291840191600101611b56565b50909695505050505050565b634e487b7160e01b600052604160045260246000fd5b600067ffffffffffffffff80841115611baf57611baf611b7e565b604051601f8501601f19908116603f01168101908282118183101715611bd757611bd7611b7e565b81604052809350858152868686011115611bf057600080fd5b858560208301376000602087830101525050509392505050565b600082601f830112611c1b57600080fd5b6116e183833560208501611b94565b60008060008060808587031215611c4057600080fd5b8435611c4b81611a9b565b9350602085013567ffffffffffffffff80821115611c6857600080fd5b611c7488838901611c0a565b94506040870135915080821115611c8a57600080fd5b611c9688838901611c0a565b93506060870135915080821115611cac57600080fd5b50611cb987828801611c0a565b91505092959194509250565b60008060408385031215611cd857600080fd5b8235611ce381611a9b565b915060208301358015158114611cf857600080fd5b809150509250929050565b60008060008060808587031215611d1957600080fd5b8435611d2481611a9b565b93506020850135611d3481611a9b565b925060408501359150606085013567ffffffffffffffff811115611d5757600080fd5b8501601f81018713611d6857600080fd5b611cb987823560208401611b94565b60008060208385031215611d8a57600080fd5b823567ffffffffffffffff80821115611da257600080fd5b818501915085601f830112611db657600080fd5b813581811115611dc557600080fd5b866020828501011115611dd757600080fd5b60209290920196919550909350505050565b60008060408385031215611dfc57600080fd5b8235611e0781611a9b565b91506020830135611cf881611a9b565b600181811c90821680611e2b57607f821691505b602082108103611e4b57634e487b7160e01b600052602260045260246000fd5b50919050565b6020808252602d908201527f4552433732313a2063616c6c6572206973206e6f7420746f6b656e206f776e6560408201526c1c881bdc88185c1c1c9bdd9959609a1b606082015260800190565b600060018201611ebe57634e487b7160e01b600052601160045260246000fd5b5060010190565b606081526000808554611ed781611e17565b8060608601526080600180841660008114611ef95760018114611f1357611f44565b60ff1985168884015283151560051b880183019550611f44565b8a60005260208060002060005b86811015611f3b5781548b8201870152908401908201611f20565b8a018501975050505b50505050508281036020840152611f5b8186611a43565b90508281036040840152611f6f8185611a43565b9695505050505050565b601f8211156106db57600081815260208120601f850160051c81016020861015611fa05750805b601f850160051c820191505b81811015611fbf57828155600101611fac565b505050505050565b67ffffffffffffffff831115611fdf57611fdf611b7e565b611ff383611fed8354611e17565b83611f79565b6000601f841160018114612027576000851561200f5750838201355b600019600387901b1c1916600186901b178355612081565b600083815260209020601f19861690835b828110156120585786850135825560209485019460019092019101612038565b50868210156120755760001960f88860031b161c19848701351681555b505060018560011b0183555b5050505050565b60208082526025908201527f4552433732313a207472616e736665722066726f6d20696e636f72726563742060408201526437bbb732b960d91b606082015260800190565b815167ffffffffffffffff8111156120e7576120e7611b7e565b6120fb816120f58454611e17565b84611f79565b602080601f83116001811461213057600084156121185750858301515b600019600386901b1c1916600185901b178555611fbf565b600085815260208120601f198616915b8281101561215f57888601518255948401946001909101908401612140565b508582101561217d5787850151600019600388901b60f8161c191681555b5050505050600190811b01905550565b60208082526032908201527f4552433732313a207472616e7366657220746f206e6f6e20455243373231526560408201527131b2b4bb32b91034b6b83632b6b2b73a32b960711b606082015260800190565b600083516121f1818460208801611a1f565b835190830190612205818360208801611a1f565b01949350505050565b6001600160a01b0385811682528416602082015260408101839052608060608201819052600090611f6f90830184611a43565b60006020828403121561225357600080fd5b81516116e1816119ec56fea26469706673582212202a29b5dd7e278303f159cb757747707f50631595693c9e1631377750831b43f864736f6c63430008110033",
  "devdoc": {
    "kind": "dev",
    "methods": {
      "approve(address,uint256)": {
        "details": "See {IERC721-approve}."
      },
      "balanceOf(address)": {
        "details": "See {IERC721-balanceOf}."
      },
      "getApproved(uint256)": {
        "details": "See {IERC721-getApproved}."
      },
      "isApprovedForAll(address,address)": {
        "details": "See {IERC721-isApprovedForAll}."
      },
      "name()": {
        "details": "See {IERC721Metadata-name}."
      },
      "owner()": {
        "details": "Returns the address of the current owner."
      },
      "ownerOf(uint256)": {
        "details": "See {IERC721-ownerOf}."
      },
      "renounceOwnership()": {
        "details": "Leaves the contract without owner. It will not be possible to call `onlyOwner` functions. Can only be called by the current owner. NOTE: Renouncing ownership will leave the contract without an owner, thereby disabling any functionality that is only available to the owner."
      },
      "safeTransferFrom(address,address,uint256)": {
        "details": "See {IERC721-safeTransferFrom}."
      },
      "safeTransferFrom(address,address,uint256,bytes)": {
        "details": "See {IERC721-safeTransferFrom}."
      },
      "setApprovalForAll(address,bool)": {
        "details": "See {IERC721-setApprovalForAll}."
      },
      "symbol()": {
        "details": "See {IERC721Metadata-symbol}."
      },
      "transferFrom(address,address,uint256)": {
        "details": "See {IERC721-transferFrom}."
      },
      "transferOwnership(address)": {
        "details": "Transfers ownership of the contract to a new account (`newOwner`). Can only be called by the current owner."
      }
    },
    "version": 1
  },
  "userdoc": {
    "kind": "user",
    "methods": {},
    "version": 1
  },
  "storageLayout": {
    "storage": [
      {
        "astId": 166,
        "contract": "contracts/SoundScaffold.sol:SoundScaffold",
        "label": "_name",
        "offset": 0,
        "slot": "0",
        "type": "t_string_storage"
      },
      {
        "astId": 168,
        "contract": "contracts/SoundScaffold.sol:SoundScaffold",
        "label": "_symbol",
        "offset": 0,
        "slot": "1",
        "type": "t_string_storage"
      },
      {
        "astId": 172,
        "contract": "contracts/SoundScaffold.sol:SoundScaffold",
        "label": "_owners",
        "offset": 0,
        "slot": "2",
        "type": "t_mapping(t_uint256,t_address)"
      },
      {
        "astId": 176,
        "contract": "contracts/SoundScaffold.sol:SoundScaffold",
        "label": "_balances",
        "offset": 0,
        "slot": "3",
        "type": "t_mapping(t_address,t_uint256)"
      },
      {
        "astId": 180,
        "contract": "contracts/SoundScaffold.sol:SoundScaffold",
        "label": "_tokenApprovals",
        "offset": 0,
        "slot": "4",
        "type": "t_mapping(t_uint256,t_address)"
      },
      {
        "astId": 186,
        "contract": "contracts/SoundScaffold.sol:SoundScaffold",
        "label": "_operatorApprovals",
        "offset": 0,
        "slot": "5",
        "type": "t_mapping(t_address,t_mapping(t_address,t_bool))"
      },
      {
        "astId": 1217,
        "contract": "contracts/SoundScaffold.sol:SoundScaffold",
        "label": "_tokenURIs",
        "offset": 0,
        "slot": "6",
        "type": "t_mapping(t_uint256,t_string_storage)"
      },
      {
        "astId": 7,
        "contract": "contracts/SoundScaffold.sol:SoundScaffold",
        "label": "_owner",
        "offset": 0,
        "slot": "7",
        "type": "t_address"
      },
      {
        "astId": 3019,
        "contract": "contracts/SoundScaffold.sol:SoundScaffold",
        "label": "artistNames",
        "offset": 0,
        "slot": "8",
        "type": "t_mapping(t_address,t_string_storage)"
      },
      {
        "astId": 3024,
        "contract": "contracts/SoundScaffold.sol:SoundScaffold",
        "label": "artistSongs",
        "offset": 0,
        "slot": "9",
        "type": "t_mapping(t_address,t_array(t_uint256)dyn_storage)"
      },
      {
        "astId": 3027,
        "contract": "contracts/SoundScaffold.sol:SoundScaffold",
        "label": "nextTokenId",
        "offset": 0,
        "slot": "10",
        "type": "t_uint256"
      }
    ],
    "types": {
      "t_address": {
        "encoding": "inplace",
        "label": "address",
        "numberOfBytes": "20"
      },
      "t_array(t_uint256)dyn_storage": {
        "base": "t_uint256",
        "encoding": "dynamic_array",
        "label": "uint256[]",
        "numberOfBytes": "32"
      },
      "t_bool": {
        "encoding": "inplace",
        "label": "bool",
        "numberOfBytes": "1"
      },
      "t_mapping(t_address,t_array(t_uint256)dyn_storage)": {
        "encoding": "mapping",
        "key": "t_address",
        "label": "mapping(address => uint256[])",
        "numberOfBytes": "32",
        "value": "t_array(t_uint256)dyn_storage"
      },
      "t_mapping(t_address,t_bool)": {
        "encoding": "mapping",
        "key": "t_address",
        "label": "mapping(address => bool)",
        "numberOfBytes": "32",
        "value": "t_bool"
      },
      "t_mapping(t_address,t_mapping(t_address,t_bool))": {
        "encoding": "mapping",
        "key": "t_address",
        "label": "mapping(address => mapping(address => bool))",
        "numberOfBytes": "32",
        "value": "t_mapping(t_address,t_bool)"
      },
      "t_mapping(t_address,t_string_storage)": {
        "encoding": "mapping",
        "key": "t_address",
        "label": "mapping(address => string)",
        "numberOfBytes": "32",
        "value": "t_string_storage"
      },
      "t_mapping(t_address,t_uint256)": {
        "encoding": "mapping",
        "key": "t_address",
        "label": "mapping(address => uint256)",
        "numberOfBytes": "32",
        "value": "t_uint256"
      },
      "t_mapping(t_uint256,t_address)": {
        "encoding": "mapping",
        "key": "t_uint256",
        "label": "mapping(uint256 => address)",
        "numberOfBytes": "32",
        "value": "t_address"
      },
      "t_mapping(t_uint256,t_string_storage)": {
        "encoding": "mapping",
        "key": "t_uint256",
        "label": "mapping(uint256 => string)",
        "numberOfBytes": "32",
        "value": "t_string_storage"
      },
      "t_string_storage": {
        "encoding": "bytes",
        "label": "string",
        "numberOfBytes": "32"
      },
      "t_uint256": {
        "encoding": "inplace",
        "label": "uint256",
        "numberOfBytes": "32"
      }
    }
  }
}