{
  "_format": "hh-sol-artifact-1",
  "contractName": "SoundScaffold",
  "sourceName": "contracts/SoundScaffold.sol",
  "abi": [
    {
      "inputs": [],
      "stateMutability": "nonpayable",
      "type": "constructor"
    },
    {
      "anonymous": false,
      "inputs": [
        {
          "indexed": true,
          "internalType": "address",
          "name": "owner",
          "type": "address"
        },
        {
          "indexed": true,
          "internalType": "address",
          "name": "approved",
          "type": "address"
        },
        {
          "indexed": true,
          "internalType": "uint256",
          "name": "tokenId",
          "type": "uint256"
        }
      ],
      "name": "Approval",
      "type": "event"
    },
    {
      "anonymous": false,
      "inputs": [
        {
          "indexed": true,
          "internalType": "address",
          "name": "owner",
          "type": "address"
        },
        {
          "indexed": true,
          "internalType": "address",
          "name": "operator",
          "type": "address"
        },
        {
          "indexed": false,
          "internalType": "bool",
          "name": "approved",
          "type": "bool"
        }
      ],
      "name": "ApprovalForAll",
      "type": "event"
    },
    {
      "anonymous": false,
      "inputs": [
        {
          "indexed": false,
          "internalType": "uint256",
          "name": "_fromTokenId",
          "type": "uint256"
        },
        {
          "indexed": false,
          "internalType": "uint256",
          "name": "_toTokenId",
          "type": "uint256"
        }
      ],
      "name": "BatchMetadataUpdate",
      "type": "event"
    },
    {
      "anonymous": false,
      "inputs": [
        {
          "indexed": false,
          "internalType": "uint256",
          "name": "_tokenId",
          "type": "uint256"
        }
      ],
      "name": "MetadataUpdate",
      "type": "event"
    },
    {
      "anonymous": false,
      "inputs": [
        {
          "indexed": true,
          "internalType": "address",
          "name": "previousOwner",
          "type": "address"
        },
        {
          "indexed": true,
          "internalType": "address",
          "name": "newOwner",
          "type": "address"
        }
      ],
      "name": "OwnershipTransferred",
      "type": "event"
    },
    {
      "anonymous": false,
      "inputs": [
        {
          "indexed": false,
          "internalType": "address",
          "name": "patron",
          "type": "address"
        },
        {
          "indexed": false,
          "internalType": "address",
          "name": "artist",
          "type": "address"
        },
        {
          "indexed": false,
          "internalType": "uint256",
          "name": "value",
          "type": "uint256"
        },
        {
          "indexed": true,
          "internalType": "uint256",
          "name": "songId",
          "type": "uint256"
        }
      ],
      "name": "PatronizeMusician",
      "type": "event"
    },
    {
      "anonymous": false,
      "inputs": [
        {
          "indexed": true,
          "internalType": "uint256",
          "name": "songId",
          "type": "uint256"
        },
        {
          "indexed": false,
          "internalType": "string",
          "name": "artist",
          "type": "string"
        },
        {
          "indexed": false,
          "internalType": "string",
          "name": "genre",
          "type": "string"
        },
        {
          "indexed": false,
          "internalType": "string",
          "name": "title",
          "type": "string"
        }
      ],
      "name": "SongUploaded",
      "type": "event"
    },
    {
      "anonymous": false,
      "inputs": [
        {
          "indexed": true,
          "internalType": "address",
          "name": "from",
          "type": "address"
        },
        {
          "indexed": true,
          "internalType": "address",
          "name": "to",
          "type": "address"
        },
        {
          "indexed": true,
          "internalType": "uint256",
          "name": "tokenId",
          "type": "uint256"
        }
      ],
      "name": "Transfer",
      "type": "event"
    },
    {
      "inputs": [
        {
          "internalType": "address",
          "name": "_user",
          "type": "address"
        }
      ],
      "name": "accountExists",
      "outputs": [
        {
          "internalType": "bool",
          "name": "",
          "type": "bool"
        }
      ],
      "stateMutability": "view",
      "type": "function"
    },
    {
      "inputs": [
        {
          "internalType": "uint256",
          "name": "",
          "type": "uint256"
        }
      ],
      "name": "accounts",
      "outputs": [
        {
          "internalType": "address",
          "name": "",
          "type": "address"
        }
      ],
      "stateMutability": "view",
      "type": "function"
    },
    {
      "inputs": [
        {
          "internalType": "address",
          "name": "to",
          "type": "address"
        },
        {
          "internalType": "uint256",
          "name": "tokenId",
          "type": "uint256"
        }
      ],
      "name": "approve",
      "outputs": [],
      "stateMutability": "nonpayable",
      "type": "function"
    },
    {
      "inputs": [
        {
          "internalType": "address",
          "name": "",
          "type": "address"
        }
      ],
      "name": "artistNames",
      "outputs": [
        {
          "internalType": "string",
          "name": "",
          "type": "string"
        }
      ],
      "stateMutability": "view",
      "type": "function"
    },
    {
      "inputs": [
        {
          "internalType": "address",
          "name": "",
          "type": "address"
        },
        {
          "internalType": "uint256",
          "name": "",
          "type": "uint256"
        }
      ],
      "name": "artistSongs",
      "outputs": [
        {
          "internalType": "uint256",
          "name": "",
          "type": "uint256"
        }
      ],
      "stateMutability": "view",
      "type": "function"
    },
    {
      "inputs": [
        {
          "internalType": "address",
          "name": "owner",
          "type": "address"
        }
      ],
      "name": "balanceOf",
      "outputs": [
        {
          "internalType": "uint256",
          "name": "",
          "type": "uint256"
        }
      ],
      "stateMutability": "view",
      "type": "function"
    },
    {
      "inputs": [
        {
          "internalType": "address payable",
          "name": "_artist",
          "type": "address"
        },
        {
          "internalType": "uint256",
          "name": "_songId",
          "type": "uint256"
        }
      ],
      "name": "contribute",
      "outputs": [],
      "stateMutability": "payable",
      "type": "function"
    },
    {
      "inputs": [
        {
          "internalType": "uint256",
          "name": "tokenId",
          "type": "uint256"
        }
      ],
      "name": "getApproved",
      "outputs": [
        {
          "internalType": "address",
          "name": "",
          "type": "address"
        }
      ],
      "stateMutability": "view",
      "type": "function"
    },
    {
      "inputs": [
        {
          "internalType": "address",
          "name": "_artist",
          "type": "address"
        }
      ],
      "name": "getSongs",
      "outputs": [
        {
          "internalType": "uint256[]",
          "name": "",
          "type": "uint256[]"
        }
      ],
      "stateMutability": "view",
      "type": "function"
    },
    {
      "inputs": [
        {
          "internalType": "address",
          "name": "owner",
          "type": "address"
        },
        {
          "internalType": "address",
          "name": "operator",
          "type": "address"
        }
      ],
      "name": "isApprovedForAll",
      "outputs": [
        {
          "internalType": "bool",
          "name": "",
          "type": "bool"
        }
      ],
      "stateMutability": "view",
      "type": "function"
    },
    {
      "inputs": [
        {
          "internalType": "address",
          "name": "to",
          "type": "address"
        },
        {
          "internalType": "string",
          "name": "uri",
          "type": "string"
        },
        {
          "internalType": "string",
          "name": "genre",
          "type": "string"
        },
        {
          "internalType": "string",
          "name": "title",
          "type": "string"
        }
      ],
      "name": "mintItem",
      "outputs": [
        {
          "internalType": "uint256",
          "name": "",
          "type": "uint256"
        }
      ],
      "stateMutability": "payable",
      "type": "function"
    },
    {
      "inputs": [],
      "name": "name",
      "outputs": [
        {
          "internalType": "string",
          "name": "",
          "type": "string"
        }
      ],
      "stateMutability": "view",
      "type": "function"
    },
    {
      "inputs": [],
      "name": "nextTokenId",
      "outputs": [
        {
          "internalType": "uint256",
          "name": "",
          "type": "uint256"
        }
      ],
      "stateMutability": "view",
      "type": "function"
    },
    {
      "inputs": [],
      "name": "owner",
      "outputs": [
        {
          "internalType": "address",
          "name": "",
          "type": "address"
        }
      ],
      "stateMutability": "view",
      "type": "function"
    },
    {
      "inputs": [
        {
          "internalType": "uint256",
          "name": "tokenId",
          "type": "uint256"
        }
      ],
      "name": "ownerOf",
      "outputs": [
        {
          "internalType": "address",
          "name": "",
          "type": "address"
        }
      ],
      "stateMutability": "view",
      "type": "function"
    },
    {
      "inputs": [
        {
          "internalType": "string",
          "name": "_artistName",
          "type": "string"
        }
      ],
      "name": "registerAccount",
      "outputs": [],
      "stateMutability": "nonpayable",
      "type": "function"
    },
    {
      "inputs": [],
      "name": "renounceOwnership",
      "outputs": [],
      "stateMutability": "nonpayable",
      "type": "function"
    },
    {
      "inputs": [
        {
          "internalType": "address",
          "name": "from",
          "type": "address"
        },
        {
          "internalType": "address",
          "name": "to",
          "type": "address"
        },
        {
          "internalType": "uint256",
          "name": "tokenId",
          "type": "uint256"
        }
      ],
      "name": "safeTransferFrom",
      "outputs": [],
      "stateMutability": "nonpayable",
      "type": "function"
    },
    {
      "inputs": [
        {
          "internalType": "address",
          "name": "from",
          "type": "address"
        },
        {
          "internalType": "address",
          "name": "to",
          "type": "address"
        },
        {
          "internalType": "uint256",
          "name": "tokenId",
          "type": "uint256"
        },
        {
          "internalType": "bytes",
          "name": "data",
          "type": "bytes"
        }
      ],
      "name": "safeTransferFrom",
      "outputs": [],
      "stateMutability": "nonpayable",
      "type": "function"
    },
    {
      "inputs": [
        {
          "internalType": "address",
          "name": "operator",
          "type": "address"
        },
        {
          "internalType": "bool",
          "name": "approved",
          "type": "bool"
        }
      ],
      "name": "setApprovalForAll",
      "outputs": [],
      "stateMutability": "nonpayable",
      "type": "function"
    },
    {
      "inputs": [
        {
          "internalType": "bytes4",
          "name": "interfaceId",
          "type": "bytes4"
        }
      ],
      "name": "supportsInterface",
      "outputs": [
        {
          "internalType": "bool",
          "name": "",
          "type": "bool"
        }
      ],
      "stateMutability": "view",
      "type": "function"
    },
    {
      "inputs": [],
      "name": "symbol",
      "outputs": [
        {
          "internalType": "string",
          "name": "",
          "type": "string"
        }
      ],
      "stateMutability": "view",
      "type": "function"
    },
    {
      "inputs": [
        {
          "internalType": "uint256",
          "name": "tokenId",
          "type": "uint256"
        }
      ],
      "name": "tokenURI",
      "outputs": [
        {
          "internalType": "string",
          "name": "",
          "type": "string"
        }
      ],
      "stateMutability": "view",
      "type": "function"
    },
    {
      "inputs": [
        {
          "internalType": "address",
          "name": "from",
          "type": "address"
        },
        {
          "internalType": "address",
          "name": "to",
          "type": "address"
        },
        {
          "internalType": "uint256",
          "name": "tokenId",
          "type": "uint256"
        }
      ],
      "name": "transferFrom",
      "outputs": [],
      "stateMutability": "nonpayable",
      "type": "function"
    },
    {
      "inputs": [
        {
          "internalType": "address",
          "name": "newOwner",
          "type": "address"
        }
      ],
      "name": "transferOwnership",
      "outputs": [],
      "stateMutability": "nonpayable",
      "type": "function"
    },
    {
      "inputs": [],
      "name": "withdraw",
      "outputs": [],
      "stateMutability": "nonpayable",
      "type": "function"
    },
    {
      "stateMutability": "payable",
      "type": "receive"
    }
  ],
  "bytecode": "0x60806040526000600b553480156200001657600080fd5b506040518060400160405280600e81526020016d14dbdd5b990814d8d859999bdb1960921b81525060405180604001604052806004815260200163534f4e4760e01b81525081600090816200006c919062000199565b5060016200007b828262000199565b50505062000098620000926200009e60201b60201c565b620000a2565b62000265565b3390565b600780546001600160a01b038381166001600160a01b0319831681179093556040519116919082907f8be0079c531659141344cd1fd0a4f28419497f9722a3daafe3b4186f6b6457e090600090a35050565b634e487b7160e01b600052604160045260246000fd5b600181811c908216806200011f57607f821691505b6020821081036200014057634e487b7160e01b600052602260045260246000fd5b50919050565b601f8211156200019457600081815260208120601f850160051c810160208610156200016f5750805b601f850160051c820191505b8181101562000190578281556001016200017b565b5050505b505050565b81516001600160401b03811115620001b557620001b5620000f4565b620001cd81620001c684546200010a565b8462000146565b602080601f831160018114620002055760008415620001ec5750858301515b600019600386901b1c1916600185901b17855562000190565b600085815260208120601f198616915b82811015620002365788860151825594840194600190910190840162000215565b5085821015620002555787850151600019600388901b60f8161c191681555b5050505050600190811b01905550565b61220680620002756000396000f3fe6080604052600436106101855760003560e01c806375794a3c116100d1578063a22cb4651161008a578063c87b56dd11610064578063c87b56dd14610456578063e985e9c514610476578063f2a40db814610496578063f2fde38b146104b657600080fd5b8063a22cb465146103f6578063b88d4fde14610416578063bff6de201461043657600080fd5b806375794a3c1461035a57806375cd51ed146103705780638418cd99146103905780638da5cb5b146103a357806395d89b41146103c1578063a09f0aed146103d657600080fd5b80633516d4eb1161013e5780636352211e116101185780636352211e146102e4578063663459661461030457806370a0823114610325578063715018a61461034557600080fd5b80633516d4eb146102825780633ccfd60b146102af57806342842e0e146102c457600080fd5b806301ffc9a71461019157806306fdde03146101c6578063081812fc146101e8578063095ea7b31461022057806323b872dd14610242578063343bf1571461026257600080fd5b3661018c57005b600080fd5b34801561019d57600080fd5b506101b16101ac36600461197a565b6104d6565b60405190151581526020015b60405180910390f35b3480156101d257600080fd5b506101db6104e7565b6040516101bd91906119e7565b3480156101f457600080fd5b506102086102033660046119fa565b610579565b6040516001600160a01b0390911681526020016101bd565b34801561022c57600080fd5b5061024061023b366004611a28565b6105a0565b005b34801561024e57600080fd5b5061024061025d366004611a54565b6106ba565b34801561026e57600080fd5b506101db61027d366004611a95565b6106eb565b34801561028e57600080fd5b506102a261029d366004611a95565b610785565b6040516101bd9190611ab2565b3480156102bb57600080fd5b506102406107f1565b3480156102d057600080fd5b506102406102df366004611a54565b6108f4565b3480156102f057600080fd5b506102086102ff3660046119fa565b61090f565b610317610312366004611ba2565b61096f565b6040519081526020016101bd565b34801561033157600080fd5b50610317610340366004611a95565b610a1e565b34801561035157600080fd5b50610240610aa4565b34801561036657600080fd5b50610317600b5481565b34801561037c57600080fd5b506101b161038b366004611a95565b610ab8565b61024061039e366004611a28565b610af6565b3480156103af57600080fd5b506007546001600160a01b0316610208565b3480156103cd57600080fd5b506101db610bdf565b3480156103e257600080fd5b506103176103f1366004611a28565b610bee565b34801561040257600080fd5b50610240610411366004611c3d565b610c1f565b34801561042257600080fd5b50610240610431366004611c7b565b610c2a565b34801561044257600080fd5b50610240610451366004611cef565b610c62565b34801561046257600080fd5b506101db6104713660046119fa565b610ce5565b34801561048257600080fd5b506101b1610491366004611d61565b610cf0565b3480156104a257600080fd5b506102086104b13660046119fa565b610d1e565b3480156104c257600080fd5b506102406104d1366004611a95565b610d48565b60006104e182610dc1565b92915050565b6060600080546104f690611d8f565b80601f016020809104026020016040519081016040528092919081815260200182805461052290611d8f565b801561056f5780601f106105445761010080835404028352916020019161056f565b820191906000526020600020905b81548152906001019060200180831161055257829003601f168201915b5050505050905090565b600061058482610de6565b506000908152600460205260409020546001600160a01b031690565b60006105ab8261090f565b9050806001600160a01b0316836001600160a01b03160361061d5760405162461bcd60e51b815260206004820152602160248201527f4552433732313a20617070726f76616c20746f2063757272656e74206f776e656044820152603960f91b60648201526084015b60405180910390fd5b336001600160a01b038216148061063957506106398133610cf0565b6106ab5760405162461bcd60e51b815260206004820152603d60248201527f4552433732313a20617070726f76652063616c6c6572206973206e6f7420746f60448201527f6b656e206f776e6572206f7220617070726f76656420666f7220616c6c0000006064820152608401610614565b6106b58383610e45565b505050565b6106c43382610eb3565b6106e05760405162461bcd60e51b815260040161061490611dc9565b6106b5838383610f11565b6008602052600090815260409020805461070490611d8f565b80601f016020809104026020016040519081016040528092919081815260200182805461073090611d8f565b801561077d5780601f106107525761010080835404028352916020019161077d565b820191906000526020600020905b81548152906001019060200180831161076057829003601f168201915b505050505081565b6001600160a01b0381166000908152600960209081526040918290208054835181840281018401909452808452606093928301828280156107e557602002820191906000526020600020905b8154815260200190600101908083116107d1575b50505050509050919050565b6107f9611082565b47806108475760405162461bcd60e51b815260206004820152601e60248201527f4e6f2066756e647320617661696c61626c6520746f20776974686472617700006044820152606401610614565b600061085b6007546001600160a01b031690565b6001600160a01b03164760405160006040518083038185875af1925050503d80600081146108a5576040519150601f19603f3d011682016040523d82523d6000602084013e6108aa565b606091505b50509050806108f05760405162461bcd60e51b81526020600482015260126024820152714661696c656420746f20776974686472617760701b6044820152606401610614565b5050565b6106b583838360405180602001604052806000815250610c2a565b6000818152600260205260408120546001600160a01b0316806104e15760405162461bcd60e51b8152602060048201526018602482015277115490cdcc8c4e881a5b9d985b1a59081d1bdad95b88125160421b6044820152606401610614565b60006001600b60008282546109849190611e16565b9091555050600b5461099686826110dc565b6109a081866110f6565b6001600160a01b038616600081815260096020908152604080832080546001810182559084528284200185905592825260089052819020905182917fc7892feed201049e739616af9421c40aa87a5182b77e18119977c9837e80c18991610a0b919088908890611e37565b60405180910390a290505b949350505050565b60006001600160a01b038216610a885760405162461bcd60e51b815260206004820152602960248201527f4552433732313a2061646472657373207a65726f206973206e6f7420612076616044820152683634b21037bbb732b960b91b6064820152608401610614565b506001600160a01b031660009081526003602052604090205490565b610aac611082565b610ab660006111c1565b565b6001600160a01b03811660009081526008602052604081208054829190610ade90611d8f565b90501115610aee57506001919050565b506000919050565b6000826001600160a01b03163460405160006040518083038185875af1925050503d8060008114610b43576040519150601f19603f3d011682016040523d82523d6000602084013e610b48565b606091505b5050905080610b905760405162461bcd60e51b81526020600482015260146024820152732330b4b632b2103a379039b2b7321022ba3432b960611b6044820152606401610614565b604080513381526001600160a01b03851660208201523481830152905183917fa3fbd7a67b0fcfcaa19624761b962a39e6d55c3c463476abd1ba72eddd4930cd919081900360600190a2505050565b6060600180546104f690611d8f565b60096020528160005260406000208181548110610c0a57600080fd5b90600052602060002001600091509150505481565b6108f0338383611213565b610c343383610eb3565b610c505760405162461bcd60e51b815260040161061490611dc9565b610c5c848484846112e1565b50505050565b3360009081526008602052604090208054610c7c90611d8f565b159050610ccb5760405162461bcd60e51b815260206004820152601e60248201527f417274697374206e616d6520616c7265616479207265676973746572656400006044820152606401610614565b3360009081526008602052604090206106b5828483611f39565b60606104e182611314565b6001600160a01b03918216600090815260056020908152604080832093909416825291909152205460ff1690565b600a8181548110610d2e57600080fd5b6000918252602090912001546001600160a01b0316905081565b610d50611082565b6001600160a01b038116610db55760405162461bcd60e51b815260206004820152602660248201527f4f776e61626c653a206e6577206f776e657220697320746865207a65726f206160448201526564647265737360d01b6064820152608401610614565b610dbe816111c1565b50565b60006001600160e01b03198216632483248360e11b14806104e157506104e182611441565b6000818152600260205260409020546001600160a01b0316610dbe5760405162461bcd60e51b8152602060048201526018602482015277115490cdcc8c4e881a5b9d985b1a59081d1bdad95b88125160421b6044820152606401610614565b600081815260046020526040902080546001600160a01b0319166001600160a01b0384169081179091558190610e7a8261090f565b6001600160a01b03167f8c5be1e5ebec7d5bd14f71427d1e84f3dd0314c0f7b2291e5b200ac8c7c3b92560405160405180910390a45050565b600080610ebf8361090f565b9050806001600160a01b0316846001600160a01b03161480610ee65750610ee68185610cf0565b80610a165750836001600160a01b0316610eff84610579565b6001600160a01b031614949350505050565b826001600160a01b0316610f248261090f565b6001600160a01b031614610f4a5760405162461bcd60e51b815260040161061490611ffa565b6001600160a01b038216610fac5760405162461bcd60e51b8152602060048201526024808201527f4552433732313a207472616e7366657220746f20746865207a65726f206164646044820152637265737360e01b6064820152608401610614565b610fb98383836001611491565b826001600160a01b0316610fcc8261090f565b6001600160a01b031614610ff25760405162461bcd60e51b815260040161061490611ffa565b600081815260046020908152604080832080546001600160a01b03199081169091556001600160a01b0387811680865260038552838620805460001901905590871680865283862080546001019055868652600290945282852080549092168417909155905184937fddf252ad1be2c89b69c2b068fc378daa952ba7f163c4a11628f55a4df523b3ef91a4505050565b6007546001600160a01b03163314610ab65760405162461bcd60e51b815260206004820181905260248201527f4f776e61626c653a2063616c6c6572206973206e6f7420746865206f776e65726044820152606401610614565b6108f0828260405180602001604052806000815250611496565b6000828152600260205260409020546001600160a01b03166111715760405162461bcd60e51b815260206004820152602e60248201527f45524337323155524953746f726167653a2055524920736574206f66206e6f6e60448201526d32bc34b9ba32b73a103a37b5b2b760911b6064820152608401610614565b6000828152600660205260409020611189828261203f565b506040518281527ff8e1a15aba9398e019f0b49df1a4fde98ee17ae345cb5f6b5e2c27f5033e8ce79060200160405180910390a15050565b600780546001600160a01b038381166001600160a01b0319831681179093556040519116919082907f8be0079c531659141344cd1fd0a4f28419497f9722a3daafe3b4186f6b6457e090600090a35050565b816001600160a01b0316836001600160a01b0316036112745760405162461bcd60e51b815260206004820152601960248201527f4552433732313a20617070726f766520746f2063616c6c6572000000000000006044820152606401610614565b6001600160a01b03838116600081815260056020908152604080832094871680845294825291829020805460ff191686151590811790915591519182527f17307eab39ab6107e8899845ad3d59bd9653f200f220920489ca2b5937696c31910160405180910390a3505050565b6112ec848484610f11565b6112f8848484846114c9565b610c5c5760405162461bcd60e51b8152600401610614906120ff565b606061131f82610de6565b6000828152600660205260408120805461133890611d8f565b80601f016020809104026020016040519081016040528092919081815260200182805461136490611d8f565b80156113b15780601f10611386576101008083540402835291602001916113b1565b820191906000526020600020905b81548152906001019060200180831161139457829003601f168201915b5050505050905060006113f460408051808201909152601b81527f687474703a2f2f6c6f63616c686f73743a383038302f697066732f0000000000602082015290565b90508051600003611406575092915050565b815115611438578082604051602001611420929190612151565b60405160208183030381529060405292505050919050565b610a16846115c7565b60006001600160e01b031982166380ac58cd60e01b148061147257506001600160e01b03198216635b5e139f60e01b145b806104e157506301ffc9a760e01b6001600160e01b03198316146104e1565b610c5c565b6114a08383611660565b6114ad60008484846114c9565b6106b55760405162461bcd60e51b8152600401610614906120ff565b60006001600160a01b0384163b156115bf57604051630a85bd0160e11b81526001600160a01b0385169063150b7a029061150d903390899088908890600401612180565b6020604051808303816000875af1925050508015611548575060408051601f3d908101601f19168201909252611545918101906121b3565b60015b6115a5573d808015611576576040519150601f19603f3d011682016040523d82523d6000602084013e61157b565b606091505b50805160000361159d5760405162461bcd60e51b8152600401610614906120ff565b805181602001fd5b6001600160e01b031916630a85bd0160e11b149050610a16565b506001610a16565b60606115d282610de6565b600061160e60408051808201909152601b81527f687474703a2f2f6c6f63616c686f73743a383038302f697066732f0000000000602082015290565b9050600081511161162e5760405180602001604052806000815250611659565b80611638846117f9565b604051602001611649929190612151565b6040516020818303038152906040525b9392505050565b6001600160a01b0382166116b65760405162461bcd60e51b815260206004820181905260248201527f4552433732313a206d696e7420746f20746865207a65726f20616464726573736044820152606401610614565b6000818152600260205260409020546001600160a01b03161561171b5760405162461bcd60e51b815260206004820152601c60248201527f4552433732313a20746f6b656e20616c7265616479206d696e746564000000006044820152606401610614565b611729600083836001611491565b6000818152600260205260409020546001600160a01b03161561178e5760405162461bcd60e51b815260206004820152601c60248201527f4552433732313a20746f6b656e20616c7265616479206d696e746564000000006044820152606401610614565b6001600160a01b038216600081815260036020908152604080832080546001019055848352600290915280822080546001600160a01b0319168417905551839291907fddf252ad1be2c89b69c2b068fc378daa952ba7f163c4a11628f55a4df523b3ef908290a45050565b606060006118068361188c565b600101905060008167ffffffffffffffff81111561182657611826611af6565b6040519080825280601f01601f191660200182016040528015611850576020820181803683370190505b5090508181016020015b600019016f181899199a1a9b1b9c1cb0b131b232b360811b600a86061a8153600a850494508461185a57509392505050565b60008072184f03e93ff9f4daa797ed6e38ed64bf6a1f0160401b83106118cb5772184f03e93ff9f4daa797ed6e38ed64bf6a1f0160401b830492506040015b6d04ee2d6d415b85acef810000000083106118f7576d04ee2d6d415b85acef8100000000830492506020015b662386f26fc10000831061191557662386f26fc10000830492506010015b6305f5e100831061192d576305f5e100830492506008015b612710831061194157612710830492506004015b60648310611953576064830492506002015b600a83106104e15760010192915050565b6001600160e01b031981168114610dbe57600080fd5b60006020828403121561198c57600080fd5b813561165981611964565b60005b838110156119b257818101518382015260200161199a565b50506000910152565b600081518084526119d3816020860160208601611997565b601f01601f19169290920160200192915050565b60208152600061165960208301846119bb565b600060208284031215611a0c57600080fd5b5035919050565b6001600160a01b0381168114610dbe57600080fd5b60008060408385031215611a3b57600080fd5b8235611a4681611a13565b946020939093013593505050565b600080600060608486031215611a6957600080fd5b8335611a7481611a13565b92506020840135611a8481611a13565b929592945050506040919091013590565b600060208284031215611aa757600080fd5b813561165981611a13565b6020808252825182820181905260009190848201906040850190845b81811015611aea57835183529284019291840191600101611ace565b50909695505050505050565b634e487b7160e01b600052604160045260246000fd5b600067ffffffffffffffff80841115611b2757611b27611af6565b604051601f8501601f19908116603f01168101908282118183101715611b4f57611b4f611af6565b81604052809350858152868686011115611b6857600080fd5b858560208301376000602087830101525050509392505050565b600082601f830112611b9357600080fd5b61165983833560208501611b0c565b60008060008060808587031215611bb857600080fd5b8435611bc381611a13565b9350602085013567ffffffffffffffff80821115611be057600080fd5b611bec88838901611b82565b94506040870135915080821115611c0257600080fd5b611c0e88838901611b82565b93506060870135915080821115611c2457600080fd5b50611c3187828801611b82565b91505092959194509250565b60008060408385031215611c5057600080fd5b8235611c5b81611a13565b915060208301358015158114611c7057600080fd5b809150509250929050565b60008060008060808587031215611c9157600080fd5b8435611c9c81611a13565b93506020850135611cac81611a13565b925060408501359150606085013567ffffffffffffffff811115611ccf57600080fd5b8501601f81018713611ce057600080fd5b611c3187823560208401611b0c565b60008060208385031215611d0257600080fd5b823567ffffffffffffffff80821115611d1a57600080fd5b818501915085601f830112611d2e57600080fd5b813581811115611d3d57600080fd5b866020828501011115611d4f57600080fd5b60209290920196919550909350505050565b60008060408385031215611d7457600080fd5b8235611d7f81611a13565b91506020830135611c7081611a13565b600181811c90821680611da357607f821691505b602082108103611dc357634e487b7160e01b600052602260045260246000fd5b50919050565b6020808252602d908201527f4552433732313a2063616c6c6572206973206e6f7420746f6b656e206f776e6560408201526c1c881bdc88185c1c1c9bdd9959609a1b606082015260800190565b808201808211156104e157634e487b7160e01b600052601160045260246000fd5b606081526000808554611e4981611d8f565b8060608601526080600180841660008114611e6b5760018114611e8557611eb6565b60ff1985168884015283151560051b880183019550611eb6565b8a60005260208060002060005b86811015611ead5781548b8201870152908401908201611e92565b8a018501975050505b50505050508281036020840152611ecd81866119bb565b90508281036040840152611ee181856119bb565b9695505050505050565b601f8211156106b557600081815260208120601f850160051c81016020861015611f125750805b601f850160051c820191505b81811015611f3157828155600101611f1e565b505050505050565b67ffffffffffffffff831115611f5157611f51611af6565b611f6583611f5f8354611d8f565b83611eeb565b6000601f841160018114611f995760008515611f815750838201355b600019600387901b1c1916600186901b178355611ff3565b600083815260209020601f19861690835b82811015611fca5786850135825560209485019460019092019101611faa565b5086821015611fe75760001960f88860031b161c19848701351681555b505060018560011b0183555b5050505050565b60208082526025908201527f4552433732313a207472616e736665722066726f6d20696e636f72726563742060408201526437bbb732b960d91b606082015260800190565b815167ffffffffffffffff81111561205957612059611af6565b61206d816120678454611d8f565b84611eeb565b602080601f8311600181146120a2576000841561208a5750858301515b600019600386901b1c1916600185901b178555611f31565b600085815260208120601f198616915b828110156120d1578886015182559484019460019091019084016120b2565b50858210156120ef5787850151600019600388901b60f8161c191681555b5050505050600190811b01905550565b60208082526032908201527f4552433732313a207472616e7366657220746f206e6f6e20455243373231526560408201527131b2b4bb32b91034b6b83632b6b2b73a32b960711b606082015260800190565b60008351612163818460208801611997565b835190830190612177818360208801611997565b01949350505050565b6001600160a01b0385811682528416602082015260408101839052608060608201819052600090611ee1908301846119bb565b6000602082840312156121c557600080fd5b81516116598161196456fea2646970667358221220e0f4f331cbb2711a9983ece5f656a27ef180087834b9bac245eb63bae9c2e7ea64736f6c63430008110033",
  "linkReferences": {},
  "deployedLinkReferences": {}
}